{
  "contractName": "Inui",
  "abi": [
    {
      "constant": true,
      "inputs": [],
      "name": "get_hub_addr",
      "outputs": [
        {
          "name": "",
          "type": "address"
        }
      ],
      "payable": false,
      "stateMutability": "view",
      "type": "function",
      "signature": "0x04badade"
    },
    {
      "constant": true,
      "inputs": [
        {
          "name": "",
          "type": "bytes32"
        }
      ],
      "name": "ideas",
      "outputs": [
        {
          "name": "root",
          "type": "bytes32"
        },
        {
          "name": "documentHash",
          "type": "bytes32"
        },
        {
          "name": "creator",
          "type": "address"
        },
        {
          "name": "category",
          "type": "string"
        }
      ],
      "payable": false,
      "stateMutability": "view",
      "type": "function",
      "signature": "0x64645122"
    },
    {
      "constant": true,
      "inputs": [],
      "name": "owner",
      "outputs": [
        {
          "name": "",
          "type": "address"
        }
      ],
      "payable": false,
      "stateMutability": "view",
      "type": "function",
      "signature": "0x8da5cb5b"
    },
    {
      "constant": true,
      "inputs": [],
      "name": "get_message_data",
      "outputs": [
        {
          "name": "",
          "type": "bytes"
        }
      ],
      "payable": false,
      "stateMutability": "view",
      "type": "function",
      "signature": "0x91719568"
    },
    {
      "constant": true,
      "inputs": [],
      "name": "get_sender",
      "outputs": [
        {
          "name": "",
          "type": "address"
        }
      ],
      "payable": false,
      "stateMutability": "view",
      "type": "function",
      "signature": "0xa8d509ff"
    },
    {
      "constant": true,
      "inputs": [
        {
          "name": "",
          "type": "uint256"
        }
      ],
      "name": "ideaList",
      "outputs": [
        {
          "name": "",
          "type": "bytes32"
        }
      ],
      "payable": false,
      "stateMutability": "view",
      "type": "function",
      "signature": "0xb167e016"
    },
    {
      "constant": true,
      "inputs": [
        {
          "name": "orig_sender",
          "type": "address"
        },
        {
          "name": "msg_data",
          "type": "bytes"
        }
      ],
      "name": "get_sender_from_data",
      "outputs": [
        {
          "name": "",
          "type": "address"
        }
      ],
      "payable": false,
      "stateMutability": "view",
      "type": "function",
      "signature": "0xc304e7a4"
    },
    {
      "constant": true,
      "inputs": [],
      "name": "get_recipient_balance",
      "outputs": [
        {
          "name": "",
          "type": "uint256"
        }
      ],
      "payable": false,
      "stateMutability": "view",
      "type": "function",
      "signature": "0xed6cd5d3"
    },
    {
      "inputs": [
        {
          "name": "hubAddress",
          "type": "address"
        }
      ],
      "payable": false,
      "stateMutability": "nonpayable",
      "type": "constructor",
      "signature": "constructor"
    },
    {
      "anonymous": false,
      "inputs": [
        {
          "indexed": true,
          "name": "creator",
          "type": "address"
        },
        {
          "indexed": true,
          "name": "documentHash",
          "type": "bytes32"
        },
        {
          "indexed": false,
          "name": "category",
          "type": "string"
        },
        {
          "indexed": false,
          "name": "ipfs",
          "type": "string"
        }
      ],
      "name": "DataSubmitted",
      "type": "event",
      "signature": "0xd5426e1c77899a28917a0129be765c400150831c1d887a6a7743b7dd0a5559f0"
    },
    {
      "constant": false,
      "inputs": [
        {
          "name": "documentHash",
          "type": "bytes32"
        },
        {
          "name": "category",
          "type": "string"
        },
        {
          "name": "ipfsHash",
          "type": "string"
        }
      ],
      "name": "submitData",
      "outputs": [],
      "payable": false,
      "stateMutability": "nonpayable",
      "type": "function",
      "signature": "0x14f2e71a"
    },
    {
      "constant": true,
      "inputs": [
        {
          "name": "user",
          "type": "address"
        },
        {
          "name": "documentHash",
          "type": "bytes32"
        },
        {
          "name": "signature",
          "type": "bytes"
        }
      ],
      "name": "viewed",
      "outputs": [
        {
          "name": "",
          "type": "bool"
        }
      ],
      "payable": false,
      "stateMutability": "view",
      "type": "function",
      "signature": "0x479efb86"
    },
    {
      "constant": true,
      "inputs": [
        {
          "name": "documentHash",
          "type": "bytes32"
        },
        {
          "name": "signature",
          "type": "bytes"
        }
      ],
      "name": "whoSigned",
      "outputs": [
        {
          "name": "",
          "type": "address"
        }
      ],
      "payable": false,
      "stateMutability": "view",
      "type": "function",
      "signature": "0xba0cfe97"
    },
    {
      "constant": true,
      "inputs": [
        {
          "name": "relay",
          "type": "address"
        },
        {
          "name": "from",
          "type": "address"
        },
        {
          "name": "encoded_function",
          "type": "bytes"
        },
        {
          "name": "gas_price",
          "type": "uint256"
        },
        {
          "name": "transaction_fee",
          "type": "uint256"
        }
      ],
      "name": "accept_relayed_call",
      "outputs": [
        {
          "name": "",
          "type": "uint32"
        }
      ],
      "payable": false,
      "stateMutability": "view",
      "type": "function",
      "signature": "0x5dea186c"
    },
    {
      "constant": false,
      "inputs": [
        {
          "name": "relay",
          "type": "address"
        },
        {
          "name": "from",
          "type": "address"
        },
        {
          "name": "encoded_function",
          "type": "bytes"
        },
        {
          "name": "success",
          "type": "bool"
        },
        {
          "name": "used_gas",
          "type": "uint256"
        },
        {
          "name": "transaction_fee",
          "type": "uint256"
        }
      ],
      "name": "post_relayed_call",
      "outputs": [],
      "payable": false,
      "stateMutability": "nonpayable",
      "type": "function",
      "signature": "0x516dea30"
    },
    {
      "constant": true,
      "inputs": [
        {
          "name": "documentHash",
          "type": "bytes32"
        }
      ],
      "name": "getEthSignedMessage",
      "outputs": [
        {
          "name": "",
          "type": "bytes32"
        }
      ],
      "payable": false,
      "stateMutability": "pure",
      "type": "function",
      "signature": "0x861749b8"
    },
    {
      "constant": true,
      "inputs": [
        {
          "name": "docHash",
          "type": "bytes32"
        }
      ],
      "name": "alreadyExists",
      "outputs": [
        {
          "name": "",
          "type": "bool"
        }
      ],
      "payable": false,
      "stateMutability": "view",
      "type": "function",
      "signature": "0xaaa2f940"
    },
    {
      "constant": true,
      "inputs": [
        {
          "name": "originalHash",
          "type": "bytes32"
        }
      ],
      "name": "getIdeaInfo",
      "outputs": [
        {
          "name": "",
          "type": "bytes32"
        },
        {
          "name": "",
          "type": "address"
        },
        {
          "name": "",
          "type": "string"
        }
      ],
      "payable": false,
      "stateMutability": "view",
      "type": "function",
      "signature": "0x946f17f7"
    },
    {
      "constant": true,
      "inputs": [],
      "name": "getIdeaList",
      "outputs": [
        {
          "name": "",
          "type": "bytes32[]"
        }
      ],
      "payable": false,
      "stateMutability": "view",
      "type": "function",
      "signature": "0x90cdfd0f"
    },
    {
      "constant": true,
      "inputs": [],
      "name": "numberOfMessages",
      "outputs": [
        {
          "name": "",
          "type": "uint256"
        }
      ],
      "payable": false,
      "stateMutability": "view",
      "type": "function",
      "signature": "0xfbda68e2"
    }
  ],
  "bytecode": "0x60806040523480156200001157600080fd5b5060405160208062001d2d833981018060405260208110156200003357600080fd5b810190808051906020019092919050505033600160006101000a81548173ffffffffffffffffffffffffffffffffffffffff021916908373ffffffffffffffffffffffffffffffffffffffff1602179055506200009f81620000a6640100000000026401000000009004565b5062000305565b600073ffffffffffffffffffffffffffffffffffffffff166000809054906101000a900473ffffffffffffffffffffffffffffffffffffffff1673ffffffffffffffffffffffffffffffffffffffff161415156200016c576040517f08c379a00000000000000000000000000000000000000000000000000000000081526004018080602001828103825260208152602001807f696e69745f72656c61795f6875623a207268756220616c72656164792073657481525060200191505060405180910390fd5b620001868162000189640100000000026401000000009004565b50565b806000806101000a81548173ffffffffffffffffffffffffffffffffffffffff021916908373ffffffffffffffffffffffffffffffffffffffff160217905550620001e2620001e6640100000000026401000000009004565b5050565b600062000201620002dc640100000000026401000000009004565b73ffffffffffffffffffffffffffffffffffffffff166370a08231306040518263ffffffff167c0100000000000000000000000000000000000000000000000000000000028152600401808273ffffffffffffffffffffffffffffffffffffffff1673ffffffffffffffffffffffffffffffffffffffff16815260200191505060206040518083038186803b1580156200029a57600080fd5b505afa158015620002af573d6000803e3d6000fd5b505050506040513d6020811015620002c657600080fd5b8101908080519060200190929190505050905090565b60008060009054906101000a900473ffffffffffffffffffffffffffffffffffffffff16905090565b611a1880620003156000396000f3fe608060405234801561001057600080fd5b5060043610610133576000357c01000000000000000000000000000000000000000000000000000000009004806391719568116100bf578063b167e0161161008e578063b167e016146109ec578063ba0cfe9714610a2e578063c304e7a414610b33578063ed6cd5d314610c4e578063fbda68e214610c6c57610133565b806391719568146107f8578063946f17f71461087b578063a8d509ff1461095c578063aaa2f940146109a657610133565b80635dea186c116101065780635dea186c146104f65780636464512214610625578063861749b81461070d5780638da5cb5b1461074f57806390cdfd0f1461079957610133565b806304badade1461013857806314f2e71a14610182578063479efb86146102de578063516dea30146103db575b600080fd5b610140610c8a565b604051808273ffffffffffffffffffffffffffffffffffffffff1673ffffffffffffffffffffffffffffffffffffffff16815260200191505060405180910390f35b6102dc6004803603606081101561019857600080fd5b8101908080359060200190929190803590602001906401000000008111156101bf57600080fd5b8201836020820111156101d157600080fd5b803590602001918460018302840111640100000000831117156101f357600080fd5b91908080601f016020809104026020016040519081016040528093929190818152602001838380828437600081840152601f19601f8201169050808301925050505050505091929192908035906020019064010000000081111561025657600080fd5b82018360208201111561026857600080fd5b8035906020019184600183028401116401000000008311171561028a57600080fd5b91908080601f016020809104026020016040519081016040528093929190818152602001838380828437600081840152601f19601f820116905080830192505050505050509192919290505050610cb3565b005b6103c1600480360360608110156102f457600080fd5b81019080803573ffffffffffffffffffffffffffffffffffffffff169060200190929190803590602001909291908035906020019064010000000081111561033b57600080fd5b82018360208201111561034d57600080fd5b8035906020019184600183028401116401000000008311171561036f57600080fd5b91908080601f016020809104026020016040519081016040528093929190818152602001838380828437600081840152601f19601f820116905080830192505050505050509192919290505050610f21565b604051808215151515815260200191505060405180910390f35b6104f4600480360360c08110156103f157600080fd5b81019080803573ffffffffffffffffffffffffffffffffffffffff169060200190929190803573ffffffffffffffffffffffffffffffffffffffff1690602001909291908035906020019064010000000081111561044e57600080fd5b82018360208201111561046057600080fd5b8035906020019184600183028401116401000000008311171561048257600080fd5b91908080601f016020809104026020016040519081016040528093929190818152602001838380828437600081840152601f19601f8201169050808301925050505050505091929192908035151590602001909291908035906020019092919080359060200190929190505050610ff2565b005b610603600480360360a081101561050c57600080fd5b81019080803573ffffffffffffffffffffffffffffffffffffffff169060200190929190803573ffffffffffffffffffffffffffffffffffffffff1690602001909291908035906020019064010000000081111561056957600080fd5b82018360208201111561057b57600080fd5b8035906020019184600183028401116401000000008311171561059d57600080fd5b91908080601f016020809104026020016040519081016040528093929190818152602001838380828437600081840152601f19601f8201169050808301925050505050505091929192908035906020019092919080359060200190929190505050610ffa565b604051808263ffffffff1663ffffffff16815260200191505060405180910390f35b6106516004803603602081101561063b57600080fd5b8101908080359060200190929190505050611008565b604051808581526020018481526020018373ffffffffffffffffffffffffffffffffffffffff1673ffffffffffffffffffffffffffffffffffffffff16815260200180602001828103825283818151815260200191508051906020019080838360005b838110156106cf5780820151818401526020810190506106b4565b50505050905090810190601f1680156106fc5780820380516001836020036101000a031916815260200191505b509550505050505060405180910390f35b6107396004803603602081101561072357600080fd5b81019080803590602001909291905050506110f0565b6040518082815260200191505060405180910390f35b610757611102565b604051808273ffffffffffffffffffffffffffffffffffffffff1673ffffffffffffffffffffffffffffffffffffffff16815260200191505060405180910390f35b6107a1611128565b6040518080602001828103825283818151815260200191508051906020019060200280838360005b838110156107e45780820151818401526020810190506107c9565b505050509050019250505060405180910390f35b610800611180565b6040518080602001828103825283818151815260200191508051906020019080838360005b83811015610840578082015181840152602081019050610825565b50505050905090810190601f16801561086d5780820380516001836020036101000a031916815260200191505b509250505060405180910390f35b6108a76004803603602081101561089157600080fd5b81019080803590602001909291905050506112fe565b604051808481526020018373ffffffffffffffffffffffffffffffffffffffff1673ffffffffffffffffffffffffffffffffffffffff16815260200180602001828103825283818151815260200191508051906020019080838360005b8381101561091f578082015181840152602081019050610904565b50505050905090810190601f16801561094c5780820380516001836020036101000a031916815260200191505b5094505050505060405180910390f35b610964611410565b604051808273ffffffffffffffffffffffffffffffffffffffff1673ffffffffffffffffffffffffffffffffffffffff16815260200191505060405180910390f35b6109d2600480360360208110156109bc57600080fd5b8101908080359060200190929190505050611466565b604051808215151515815260200191505060405180910390f35b610a1860048036036020811015610a0257600080fd5b81019080803590602001909291905050506114d5565b6040518082815260200191505060405180910390f35b610af160048036036040811015610a4457600080fd5b810190808035906020019092919080359060200190640100000000811115610a6b57600080fd5b820183602082011115610a7d57600080fd5b80359060200191846001830284011164010000000083111715610a9f57600080fd5b91908080601f016020809104026020016040519081016040528093929190818152602001838380828437600081840152601f19601f8201169050808301925050505050505091929192905050506114f8565b604051808273ffffffffffffffffffffffffffffffffffffffff1673ffffffffffffffffffffffffffffffffffffffff16815260200191505060405180910390f35b610c0c60048036036040811015610b4957600080fd5b81019080803573ffffffffffffffffffffffffffffffffffffffff16906020019092919080359060200190640100000000811115610b8657600080fd5b820183602082011115610b9857600080fd5b80359060200191846001830284011164010000000083111715610bba57600080fd5b91908080601f016020809104026020016040519081016040528093929190818152602001838380828437600081840152601f19601f82011690508083019250505050505050919291929050505061159a565b604051808273ffffffffffffffffffffffffffffffffffffffff1673ffffffffffffffffffffffffffffffffffffffff16815260200191505060405180910390f35b610c566116e5565b6040518082815260200191505060405180910390f35b610c746117c7565b6040518082815260200191505060405180910390f35b60008060009054906101000a900473ffffffffffffffffffffffffffffffffffffffff16905090565b600060026000858152602001908152602001600020905060006001028414151515610cdd57600080fd5b610ce684611466565b151515610d5b576040517f08c379a00000000000000000000000000000000000000000000000000000000081526004018080602001828103825260138152602001807f4841534820414c5245414459204558495354530000000000000000000000000081525060200191505060405180910390fd5b838160010181905550610d6c611410565b8160020160006101000a81548173ffffffffffffffffffffffffffffffffffffffff021916908373ffffffffffffffffffffffffffffffffffffffff16021790555082816003019080519060200190610dc6929190611947565b50600384908060018154018082558091505090600182039060005260206000200160009091929091909150555083610dfc611410565b73ffffffffffffffffffffffffffffffffffffffff167fd5426e1c77899a28917a0129be765c400150831c1d887a6a7743b7dd0a5559f08585604051808060200180602001838103835285818151815260200191508051906020019080838360005b83811015610e79578082015181840152602081019050610e5e565b50505050905090810190601f168015610ea65780820380516001836020036101000a031916815260200191505b50838103825284818151815260200191508051906020019080838360005b83811015610edf578082015181840152602081019050610ec4565b50505050905090810190601f168015610f0c5780820380516001836020036101000a031916815260200191505b5094505050505060405180910390a350505050565b6000610f2c83611466565b1515610fa0576040517f08c379a00000000000000000000000000000000000000000000000000000000081526004018080602001828103825260118152602001807f4841534820444f45534e5420455849535400000000000000000000000000000081525060200191505060405180910390fd5b610fbb82610fad856117d4565b61182c90919063ffffffff16565b73ffffffffffffffffffffffffffffffffffffffff168473ffffffffffffffffffffffffffffffffffffffff161490509392505050565b505050505050565b600080905095945050505050565b60026020528060005260406000206000915090508060000154908060010154908060020160009054906101000a900473ffffffffffffffffffffffffffffffffffffffff1690806003018054600181600116156101000203166002900480601f0160208091040260200160405190810160405280929190818152602001828054600181600116156101000203166002900480156110e65780601f106110bb576101008083540402835291602001916110e6565b820191906000526020600020905b8154815290600101906020018083116110c957829003601f168201915b5050505050905084565b60006110fb826117d4565b9050919050565b600160009054906101000a900473ffffffffffffffffffffffffffffffffffffffff1681565b6060600380548060200260200160405190810160405280929190818152602001828054801561117657602002820191906000526020600020905b815481526020019060010190808311611162575b5050505050905090565b6060806000368080601f016020809104026020016040519081016040528093929190818152602001838380828437600081840152601f19601f8201169050808301925050505050505090506111d3610c8a565b73ffffffffffffffffffffffffffffffffffffffff163373ffffffffffffffffffffffffffffffffffffffff1614156112f75760146000369050036040519080825280601f01601f1916602001820160405280156112405781602001600182028038833980820191505090505b50905060008090505b81518110156112f55760003682818110151561126157fe5b905001357f010000000000000000000000000000000000000000000000000000000000000090047f01000000000000000000000000000000000000000000000000000000000000000282828151811015156112b857fe5b9060200101907effffffffffffffffffffffffffffffffffffffffffffffffffffffffffffff1916908160001a9053508080600101915050611249565b505b8091505090565b600080606060026000858152602001908152602001600020600101546002600086815260200190815260200160002060020160009054906101000a900473ffffffffffffffffffffffffffffffffffffffff1660026000878152602001908152602001600020600301808054600181600116156101000203166002900480601f0160208091040260200160405190810160405280929190818152602001828054600181600116156101000203166002900480156113fc5780601f106113d1576101008083540402835291602001916113fc565b820191906000526020600020905b8154815290600101906020018083116113df57829003601f168201915b505050505090509250925092509193909250565b6000611461336000368080601f016020809104026020016040519081016040528093929190818152602001838380828437600081840152601f19601f8201169050808301925050505050505061159a565b905090565b60008073ffffffffffffffffffffffffffffffffffffffff166002600084815260200190815260200160002060020160009054906101000a900473ffffffffffffffffffffffffffffffffffffffff1673ffffffffffffffffffffffffffffffffffffffff1614159050919050565b6003818154811015156114e457fe5b906000526020600020016000915090505481565b600061150383611466565b1515611577576040517f08c379a00000000000000000000000000000000000000000000000000000000081526004018080602001828103825260118152602001807f4841534820444f45534e5420455849535400000000000000000000000000000081525060200191505060405180910390fd5b61159282611584856117d4565b61182c90919063ffffffff16565b905092915050565b6000808390506115a8610c8a565b73ffffffffffffffffffffffffffffffffffffffff168473ffffffffffffffffffffffffffffffffffffffff1614156116db57606060146040519080825280601f01601f1916602001820160405280156116115781602001600182028038833980820191505090505b50905060008090505b81518110156116cd57848183518751030181518110151561163757fe5b9060200101517f010000000000000000000000000000000000000000000000000000000000000090047f010000000000000000000000000000000000000000000000000000000000000002828281518110151561169057fe5b9060200101907effffffffffffffffffffffffffffffffffffffffffffffffffffffffffffff1916908160001a905350808060010191505061161a565b506116d781611910565b9150505b8091505092915050565b60006116ef61191e565b73ffffffffffffffffffffffffffffffffffffffff166370a08231306040518263ffffffff167c0100000000000000000000000000000000000000000000000000000000028152600401808273ffffffffffffffffffffffffffffffffffffffff1673ffffffffffffffffffffffffffffffffffffffff16815260200191505060206040518083038186803b15801561178757600080fd5b505afa15801561179b573d6000803e3d6000fd5b505050506040513d60208110156117b157600080fd5b8101908080519060200190929190505050905090565b6000600380549050905090565b60008160405160200180807f19457468657265756d205369676e6564204d6573736167653a0a333200000000815250601c01828152602001915050604051602081830303815290604052805190602001209050919050565b60008060008060418551141515611849576000935050505061190a565b6020850151925060408501519150606085015160001a9050601b8160ff16101561187457601b810190505b601b8160ff161415801561188c5750601c8160ff1614155b1561189d576000935050505061190a565b60018682858560405160008152602001604052604051808581526020018460ff1660ff1681526020018381526020018281526020019450505050506020604051602081039080840390855afa1580156118fa573d6000803e3d6000fd5b5050506020604051035193505050505b92915050565b600060148201519050919050565b60008060009054906101000a900473ffffffffffffffffffffffffffffffffffffffff16905090565b828054600181600116156101000203166002900490600052602060002090601f016020900481019282601f1061198857805160ff19168380011785556119b6565b828001600101855582156119b6579182015b828111156119b557825182559160200191906001019061199a565b5b5090506119c391906119c7565b5090565b6119e991905b808211156119e55760008160009055506001016119cd565b5090565b9056fea165627a7a72305820a6932a8fac101bafae36a84742b0911d3d7bb5748af94fbbf05e102bb487a57a0029",
  "source": "pragma solidity >=0.5.0;\n\nimport \"./ECDSA.sol\";\n\nimport \"./RelayRecipient.sol\"; \n\n// TODO: Add credits for users to use gashub\ncontract Inui is RelayRecipient {\n    using ECDSA for bytes32;\n\n    struct Idea {\n        bytes32 root;    // where this idea was forked from\n        bytes32 documentHash;   // sha3(raw text)\n        address creator;\n        string category;\n    }\n\n    address public owner;\n\n\n    mapping (bytes32 => Idea) public ideas;   // key = original hash\n\n\n    bytes32[] public ideaList;\n    \n\n\n    constructor(address hubAddress)\n    public {\n        owner = msg.sender; \n        init_relay_hub(RelayHub(hubAddress));\n    }\n\n    function submitData(bytes32 documentHash, string memory category, string memory ipfsHash)\n    public {\n        Idea storage newIdea = ideas[documentHash];\n        require(documentHash != bytes32(0)); \n        require(!alreadyExists(documentHash), \"HASH ALREADY EXISTS\");\n        newIdea.documentHash = documentHash;\n        newIdea.creator = get_sender(); \n        newIdea.category = category;\n        ideaList.push(documentHash);\n        emit DataSubmitted(get_sender(), documentHash, category, ipfsHash);\n    }\n\n    function viewed(address user, bytes32 documentHash, bytes memory signature)\n    public\n    view\n    returns (bool){\n        require(alreadyExists(documentHash), \"HASH DOESNT EXIST\");\n        return user == documentHash.toEthSignedMessageHash().recover(signature);\n    }\n\n    function whoSigned(bytes32 documentHash, bytes memory signature)\n    public\n    view\n    returns (address) {\n        require(alreadyExists(documentHash), \"HASH DOESNT EXIST\");\n        return documentHash.toEthSignedMessageHash().recover(signature);\n    }\n\n    function accept_relayed_call(address relay, address from, bytes memory encoded_function, uint gas_price, uint transaction_fee) \n    public \n    view \n    returns(uint32) {\n        return 0;\n    }\n\n    function post_relayed_call(address relay, address from, bytes memory encoded_function, bool success, uint used_gas, uint transaction_fee) \n    public {\n        // TODO: subtract user credits\n    }\n\n    function getEthSignedMessage(bytes32 documentHash)\n    public \n    pure \n    returns (bytes32){\n        return documentHash.toEthSignedMessageHash();\n    }\n\n    function alreadyExists(bytes32 docHash)\n    public\n    view\n    returns (bool) {\n        return (ideas[docHash].creator != address(0));\n    }\n\n    function getIdeaInfo(bytes32 originalHash)\n    public \n    view \n    returns (bytes32, address, string memory) {\n        return (ideas[originalHash].documentHash, ideas[originalHash].creator, ideas[originalHash].category);\n    }\n\n    function getIdeaList()\n    public \n    view \n    returns (bytes32[] memory) {\n        return ideaList; \n    }\n\n    function numberOfMessages()\n    public \n    view \n    returns (uint256) {\n        return ideaList.length;\n    }\n\n    event DataSubmitted(address indexed creator, bytes32 indexed documentHash, string category, string ipfs);\n}\n",
  "sourcePath": "/home/dao/code/inui/app.docker/contracts/Inui.sol",
  "compiler": {
    "name": "solc",
    "version": "0.5.2+commit.1df8f40c.Emscripten.clang"
  },
  "schemaVersion": "3.0.8",
  "updatedAt": "2019-05-08T14:24:40.073Z",
  "devdoc": {
    "methods": {}
  },
  "userdoc": {
    "methods": {
      "get_recipient_balance()": {
        "notice": "return the balance of this contract. Note that this method will revert on configuration error (invalid relay address)"
      }
    }
  }
}